:0400000096EF0BF07C
:100800000050757420746865207765696768742086
:100810002620776169740052652D63616C69626599
:10082000726174696E672E2E0043616C6962726139
:1008300074696E672E2E2E004A756C203239203274
:100840003031380049324320726561643A003136F4
:0D0850003A33343A3337002020676D000042
:10085E00290E076E080E086E2FEC0BF0000E4F6E71
:10086E00000E4E6E4FBE06D04F5034E1640E4E5CFD
:10087E00D8B030D07BEC0AF001C06AF002C06BF049
:10088E0003C06CF004C06DF000016A516E276B510D
:10089E006F236C5170236D517123000E026E140E76
:1008AE00016EB5EC0BF06AC00FF06BC010F06CC0AF
:1008BE0011F06DC012F0440E136E000E146E66EC45
:1008CE0007F0440E076E000E086E2FEC0BF04E4A2A
:1008DE004F2AC8D76EC001F06FC002F070C003F08F
:1008EE0071C004F0640E056E000E066E000E076EEB
:1008FE00000E086E68EC09F001C06EF002C06FF0D9
:10090E0003C070F004C071F0000E00016A6F000E9B
:10091E006B6F000E6C6F000E6D6F010E076E080E82
:10092E00086E2FEC0BF042D07BEC0AF001C06AF09F
:10093E0002C06BF003C06CF004C06DF06EC040F0EE
:10094E006FC041F070C042F071C043F0401E411EB6
:10095E00421E431E402A000E412242224322000123
:10096E006A5140246A6F6B5141206B6F6C5142206B
:10097E006C6F6D5143206D6F000E026E0A0E016E8C
:10098E00B5EC0BF06AC00FF06BC010F06CC011F03C
:10099E006DC012F0440E136E000E146E66EC07F06E
:1009AE00440E076E000E086E2FEC0BF000016DBFAB
:1009BE00BBD76D516C1106E1D00E6A5D070E6B59F7
:1009CE00D8A0B2D7070E026ED00E016EB5EC0BF0AA
:1009DE00170E076E080E086E2FEC0BF0000E516E00
:1009EE00000E506E51BE06D051505FE1640E505C49
:1009FE00D8B05BD07BEC0AF001C06AF002C06BF09D
:100A0E0003C06CF004C06DF0B6C034F0B7C035F062
:100A1E00B8C036F06AC040F06BC041F06CC042F016
:100A2E006DC043F0401E411E421E431E402A000E62
:100A3E0041224222432200016E514024096E6F5121
:100A4E0041200A6E705142200B6E715143200C6E84
:100A5E00BAEC0AF009C037F00AC038F00BC039F012
:100A6E0090EC06F034C0B6F035C0B7F036C0B8F032
:100A7E00000E026E140E016EB5EC0BF06AC00FF094
:100A8E006BC010F06CC011F06DC012F0440E136EFE
:100A9E00000E146E66EC07F0440E076E000E086E24
:100AAE002FEC0BF0504A512A9DD7B6C013F0B7C0A9
:100ABE0014F0B8C015F0000E166EC80E176E420E6A
:100ACE00186EF5EC08F013C0B6F014C0B7F015C0F0
:100ADE00B8F0B6C013F0B7C014F0B8C015F0000EE1
:100AEE00166E960E176E430E186EF5EC08F013C0C8
:100AFE00B6F014C0B7F015C0B8F01200000E000129
:100B0E00DF6F000EDE6F000E936E720ED36E68EC0A
:100B1E000BF0000E026E030E016EB5EC0BF0250EFF
:100B2E00506E800E4F6EF6EC0AF01EEC0CF04E0E70
:100B3E00076E080E086E2FEC0BF01EEC0CF0380E44
:100B4E00076E080E086E2FEC0BF01EEC0CF0000E6C
:100B5E000001DD6F000EDC6F1EEC0CF02FEC04F0CC
:100B6E0081B01DD0000E0001B66F000EB76F000EE3
:100B7E00B86F000E6E6F000E6F6F000E706F000E6E
:100B8E00716F000EDF6F000EDE6F000E6A6F000ECB
:100B9E006B6F000E6C6F000E6D6F2FEC04F07BEC24
:100BAE000AF001C06AF002C06BF003C06CF004C022
:100BBE006DF0000E256E000E266E400E276EB6C02E
:100BCE0016F0B7C017F0B8C018F06EC054F06FC072
:100BDE0055F070C056F071C057F0541E551E561E7B
:100BEE00571E542A000E55225622572200016A51D2
:100BFE005424096E6B5155200A6E6C5156200B6EA3
:100C0E006D5157200C6EBAEC0AF009C013F00AC0F1
:100C1E0014F00BC015F0F5EC08F013C022F014C060
:100C2E0023F015C024F07BEC08F022C031F023C075
:100C3E0032F024C033F0EEEC0BF031C037F032C09E
:100C4E0038F033C039F0B6C016F0B7C017F0B8C0E0
:100C5E0018F06EC058F06FC059F070C05AF071C0E5
:100C6E005BF0581E591E5A1E5B1E582A000E592242
:100C7E005A225B2200016A515824096E6B51592089
:100C8E000A6E6C515A200B6E6D515B200C6EBAECD5
:100C9E000AF009C013F00AC014F00BC015F0F5EC01
:100CAE0008F013C034F014C035F015C036F090ECD7
:100CBE0006F034C040F035C041F036C042F001ECD1
:100CCE0008F040C0DEF041C0DFF0DEC00FF0DFC044
:100CDE0010F0000E10BEFF0E116E126ED20E136EBD
:100CEE00000E146E66EC07F0D20E076E000E086E44
:100CFE002FEC0BF0570E076E080E086E2FEC0BF054
:100D0E001EEC0CF0030E026EE80E016EB5EC0BF04D
:100D1E0027D736C03AF03B6A3C6A35343A3601E39F
:100D2E003B803A503F6E39C03AF03B6A3C6A3834E9
:100D3E003A3601E33B803A503E6E3F50D8B40BD06A
:100D4E003E503F5CD8B00ED03F5000083E243A6E65
:100D5E00180E3A6407D037C034F038C035F039C0B9
:100D6E0036F012003E50D8B40BD03F503E5CD8B097
:100D7E000ED03E5000083F243A6E180E3A6407D04B
:100D8E0034C034F035C035F036C036F01200060EE1
:100D9E003D6E36BE3D8E39BE3D8C358EFF0E341601
:100DAE00FF0E3516000E3616388EFF0E3716FF0E56
:100DBE003816000E39163E503F5CD8B01BD0D89076
:100DCE003736383639363E063F503E18D8B40DD039
:100DDE003D063DC03AF0070E3A16D8B406D0EFD70E
:100DEE00D8903632353234323F2A3E503F18D8B47E
:100DFE001FD0F6D73F503E5CD8B01AD0D8903436BC
:100E0E00353636363F063F503E18D8B40DD03D0627
:100E1E003DC03AF0070E3A16D8B406D0EFD7D890A8
:100E2E003932383237323E2A3E503F18D8A4F7D7DF
:100E3E003DAE0CD0FF0E341AFF0E351AFF0E361AC9
:100E4E00010E3426000E3522000E36223DAC0CD09B
:100E5E00FF0E371AFF0E381AFF0E391A010E3726FB
:100E6E00000E3822000E3922000E3D6E3450372609
:100E7E00355038223650392239AE0ED0FF0E371A81
:100E8E00FF0E381AFF0E391A010E3726000E3822C1
:100E9E00000E3922010E3D6E37C001F038C002F04F
:100EAE0039C003F03FC004F03DC005F0CEEC09F0B0
:100EBE0001C034F002C035F003C036F012000FC08E
:100ECE0019F010C01AF011C01BF012C01CF0000E69
:100EDE001E6E000E1D6E000E186E000E176E1CD0CC
:100EEE0019C001F01AC002F01BC003F01CC004F0C0
:100EFE000A0E056E000E066E000E076E000E086ED0
:100F0E0068EC09F001C019F002C01AF003C01BF022
:100F1E0004C01CF01D4A1E2A19501A101B101C105A
:100F2E00D8A4DED712BE07D012501110101012E145
:100F3E000F04D8B00FD013C0D9FF14C0DAFF300E93
:100F4E00DF6E20EE01F01350D9261450DA22000E77
:100F5E00DF6E12001DC017F01EC018F03CD00FC07F
:100F6E0001F010C002F011C003F012C004F00A0E1E
:100F7E00056E000E066E000E076E000E086E25EC56
:100F8E000AF001C015F002C016F01D06D8A01E060C
:100F9E001D501324D96E1E501420DA6E1550300FCA
:100FAE00DF6E0FC001F010C002F011C003F012C0CE
:100FBE0004F00A0E056E000E066E000E076E000E91
:100FCE00086E68EC09F001C00FF002C010F003C00B
:100FDE0011F004C012F00F50101011101210D8A4FE
:100FEE00BED717501324D96E18501420DA6E000E87
:100FFE00DF6E120042C044F0456A466A4134443600
:10100E0001E3458044504E6E4E50D8A409D0000ED8
:10101E00406E000E416E000E426E000E436E1200C8
:10102E00170E446E40C045F041C046F042C047F036
:10103E004428486E04D0D890473246324532482E66
:10104E00FAD74550496E418EFF0E4016FF0E4116DF
:10105E00000E421640504A6E41504B6E42504C6E3E
:10106E004D6A8E0E4E5E4EAE16D04E50800A8F0FCB
:10107E00D8B009D0000E406E000E416E000E426ECA
:10108E00000E436E1200D8904D324C324B324A3223
:10109E004E3EF9D715D0170E4E640FD0000E406E8F
:1010AE00000E416E000E426E000E436E1200D8907E
:1010BE004A364B364C364D364E064E50D8A4F7D7E0
:1010CE004950D8B408D04D1E4C1E4B1E4A6C000E13
:1010DE004B224C224D224AC040F04BC041F04CC036
:1010EE0042F04DC043F0120024C028F0296A2A6A4B
:1010FE002334283601E3298028502B6E2B50D8A498
:10110E0007D0000E226E000E236E000E246E12000B
:10111E0027C028F0296A2A6A2634283601E3298056
:10112E002850306E3050D8A407D0000E226E000E1C
:10113E00236E000E246E120030507B0F2B2624C01F
:10114E0030F02750301A800E3016238E268EFF0E6A
:10115E002516FF0E2616000E2716000E2C6E000EFC
:10116E002D6E000E2E6E070E2F6E22A006D025506D
:10117E002C2626502D2227502E22D8902432233270
:10118E002232D8902536263627362F2EEED7090E48
:10119E002F6E22A006D025502C2626502D22275009
:1011AE002E22D890243223322232D8902E322D3253
:1011BE002C322F2EEED72CC001F02DC002F02EC0F7
:1011CE0003F02BC004F030C005F0CEEC09F001C0E6
:1011DE0022F002C023F003C024F0120015C019F053
:1011EE001A6A1B6A1434193601E31A801950206EDC
:1011FE002050D8A407D0000E136E000E146E000EF1
:10120E00156E120018C019F01A6A1B6A17341936B7
:10121E0001E31A801950216E2150D8A407D0000E78
:10122E00136E000E146E000E156E1200000E1D6E63
:10123E00000E1E6E000E1F6E2150890F205E15C00F
:10124E0021F01850211A800E2116148EFF0E13163F
:10125E00FF0E1416000E1516178EFF0E1616FF0E25
:10126E001716000E1816180E1C6ED8901D361E3648
:10127E001F361650135C1750145818501558D8A016
:10128E0007D01650135E1750145A1850155A1D8059
:10129E00D8901336143615361C2EE7D71DC001F024
:1012AE001EC002F01FC003F020C004F021C005F0E4
:1012BE00CEEC09F001C013F002C014F003C015F01B
:1012CE001200000E0A6E08AE0AD0081E071E061E79
:1012DE00056C000E062207220822010E0A6E04AECD
:1012EE000AD0041E031E021E016C000E02220322EF
:1012FE000422010E0A1A000E0B6E000E0C6E000E6A
:10130E000D6E000E0E6E0550061007100810D8B4A4
:10131E002AD0010E096E06D0D8900536063607364D
:10132E000836092A08AEF8D7D8900B360C360D368B
:10133E000E360550015C06500258075003580850EF
:10134E000458D8A009D00550015E0650025A075025
:10135E00035A0850045A0B80D890083207320632CE
:10136E000532092EE1D70A50D8B408D00E1E0D1E34
:10137E000C1E0B6C000E0C220D220E220BC001F067
:10138E000CC002F00DC003F00EC004F012000450A9
:10139E00D8B405D0015002100310D8A40CD0000E02
:1013AE00016E000E026E000E036E1200042AD8901B
:1013BE00033202320132000E0114066E000E0214C8
:1013CE00076EFE0E0314086E065007100810D8B4F0
:1013DE000CD0ECD7042A010E0126000E0222000EBC
:1013EE000322D890033202320132000E0114066E2F
:1013FE00000E0214076EFF0E0314086E065007103F
:10140E000810D8B406D0E6D70406D89001360236B6
:10141E00033602BE03D0020E0460F6D704A0029E6D
:10142E00D8900432045003120550D8A4038E01C084
:10143E0001F002C002F003C003F01200000E0A6EAB
:10144E0004AE0AD0041E031E021E016C000E022200
:10145E0003220422010E0A6E08AE08D0081E071ED3
:10146E00061E056C000E06220722082205500610E5
:10147E0007100810D8B424D0010E096E06D0D890EB
:10148E000536063607360836092A08AEF8D705504F
:10149E00015C065002580750035808500458D8A053
:1014AE0008D00550015E0650025A0750035A0850E4
:1014BE00045AD8900832073206320532092EE7D781
:1014CE000A50D8B408D0041E031E021E016C000E72
:1014DE0002220322042201C001F002C002F003C066
:1014EE0003F004C004F01200929A898A8998928AB5
:1014FE00000E066E000E076E000E086E000E096ED0
:10150E0080BAFED7000E056E14D08988D8900634A6
:10151E00066E0734076E0834086E0934096E899812
:10152E0080AA06D0010E0626000E072208220922E6
:10153E00052A170E0564E9D78988000E0618066E6F
:10154E00000E0718076E800E0818086E000E091898
:10155E00096E899806C001F007C002F008C003F0BA
:10156E0009C004F01200000E126E8E0E116E0CAE3B
:10157E0011D00C1E0B1E0A1E096C000E0A220B2225
:10158E000C22010E126E06D0D8900C320B320A329B
:10159E000932112A000E09140D6E000E0A140E6E79
:1015AE00000E0B140F6EFF0E0C14106E0D500E105D
:1015BE000F101010D8A4E8D709C001F00AC002F02D
:1015CE000BC003F011C004F012C005F0CEEC09F010
:1015DE0001C009F002C00AF003C00BF01200949C87
:1015EE00948E4FC009F050C00AF0D2EC0BF009C037
:1015FE0016F00AC017F00BC018F0240E136EF40E7E
:10160E00146E470E156EF5EC08F013C034F014C0CE
:10161E0035F015C036F0000E376E800E386EBF0EE8
:10162E00396E90EC06F034C051F035C052F036C031
:10163E0053F051C040F052C041F053C042F001ECA3
:10164E0008F04050AF6E200EAC6E900EAB6E1200D6
:10165E00000E0C6E000E0B6E1AD00B500724096E86
:10166E000C5008200A6E09C0F6FF0AC0F7FFF86A90
:10167E00070EF76403D00800F55005D0F6CFE9FF4A
:10168E00F7CFEAFFEF5012EC0CF00B4A0C2A0B507E
:10169E000724096E0C5008200A6E09C0F6FF0AC016
:1016AE00F7FFF86A070EF76403D00800F55005D06F
:1016BE00F6CFE9FFF7CFEAFFEF500009D8B41200DA
:1016CE00CCD70F0EC16E070EB46E000EB56E000EA7
:1016DE006D6E000EBD6E000EBA6E89889382938079
:1016EE009384000E0001966F000E976F000E986F98
:1016FE00000E996F010EE46F000E026E640E016E05
:10170E00B5EC0BF0928A92988988250E506E800E59
:10171E004F6EF6EC0AF09280928A929812004A0E60
:10172E00F66E180EF76E000EF86E00EEE0F010EE8C
:10173E0004F00900F5CFEEFFE550E150FAE100EEBE
:10174E0060F0720EEE6AE806FDE15F6A5E6A5D6A3F
:10175E005C6A000EF86E000185EF05F0000E046E57
:10176E00000E036E0FD0000E066E000E056E0650B4
:10177E0007E1A50E055CD8B003D0054A062AF7D7B7
:10178E00034A042A0150035C02500458D8A0EBD738
:10179E0000F000F01200000E0C6E0AAE06D0096CBE
:1017AE000A1ED8B00A2A010E0C6E09C001F00AC03A
:1017BE0002F0036A8E0E046E0CC005F0CEEC09F03A
:1017CE0001C009F002C00AF003C00BF01200315044
:1017DE0032103310D8B406D0000E311A000E321A61
:1017EE00800E331A31C031F032C032F033C033F0D4
:1017FE001200000E056E000E046E02D0044A052A79
:10180E000450015C0250800A036E0550800A035892
:10181E00D8A01200F3D7066EACA2FED706C0ADFF5D
:10182E00030E026EE80E016E00EC0CF012000A0EB2
:10183E0012EC0CF00D0E12EC0CF0120012833A01A9
:020000040020DA
:08000000FFFFFFFFFFFFFFFF00
:020000040030CA
:0E000000240E1F1EFF8181FF0FC00FE00F4076
:00000001FF
