:0400000000EF0FF00E
:100800000050757420746865207765696768742086
:10081000262077616974004465746563746564209B
:100820007765696768742E2E0050757420333030F8
:10083000676D2077656967687400526563616C69EC
:1008400062726174696E672E2E0043616C69627218
:100850006174696E672E2E2E004A756C2032392025
:1008600032303138005765696768205363616C65C1
:100870000043616C6962726174696E670073616DD7
:10088000706C653A200032333A35303A32360076B1
:0B089000616C3A20002020676D000022
:10089C00000E4D6E000E4E6E000E4F6E000E506E22
:1008AC00000E456E000E466E000E476E000E486E32
:1008BC004A0E076E080E086E5AEC0DF01BEC0FF08A
:1008CC00710E086E080E096E93EC0DF0000E4A6E58
:1008DC00000E496E4ABE06D04A5036E1640E495CA1
:1008EC00D8B032D0A6EC0CF001C06AF002C06BF0AC
:1008FC0003C06CF004C06DF000016A516E276B519F
:10090C006F236C5170236D517123000E026E140E07
:10091C00016E5BEC0EF06AC00FF06BC010F06CC097
:10092C0011F06DC012F03B0E136E000E146EFCEC49
:10093C0008F03B0E076E000E086E5AEC0DF025EC1D
:10094C000FF0494A4A2AC6D76EC001F06FC002F0B8
:10095C0070C003F071C004F0640E056E000E066EDC
:10096C00000E076E000E086E93EC0BF001C06EF0DB
:10097C0002C06FF003C070F004C071F0000E0001F3
:10098C006A6F000E6B6F000E6C6F000E6D6F1BECC0
:10099C000FF0290E086E080E096E93EC0DF0010E87
:1009AC00076E080E086E5AEC0DF025EC0FF034D0E3
:1009BC00A6EC0CF001C06AF002C06BF003C06CF046
:1009CC0004C06DF06EC033F06FC034F070C035F001
:1009DC0071C036F0331E341E351E361E332A000EFF
:1009EC0034223522362200016A5133246A6F6B514E
:1009FC0034206B6F6C5135206C6F6D5136206D6FE0
:100A0C00000E026E140E016E5BEC0EF02E0E076ED5
:100A1C00000E086E5AEC0DF000016DBFC9D76D5178
:100A2C006C1106E1D00E6A5D070E6B59D8A0C0D7C9
:100A3C001BEC0FF0170E086E080E096E93EC0DF000
:100A4C00070E026ED00E016E5BEC0EF01BEC0FF07D
:100A5C003A0E086E080E096E93EC0DF03A0E076E06
:100A6C00080E086E5AEC0DF0000E4C6E000E4B6E1C
:100A7C004CBE06D04C5043E1640E4B5CD8B03FD01A
:100A8C00A6EC0CF001C06AF002C06BF003C06CF075
:100A9C0004C06DF06AC033F06BC034F06CC035F03C
:100AAC006DC036F0331E341E351E361E332A000E32
:100ABC0034223522362200016E513324376E6F51A9
:100ACC003420386E70513520396E715136203A6EA3
:100ADC003750CF273850D0233950D1233A50D22316
:100AEC00000E026E140E016E5BEC0EF02E0E076EF5
:100AFC00000E086E5AEC0DF04B4A4C2AB9D7000E7A
:100B0C004D6E000E4E6E000E4F6E000E506E4DC0B0
:100B1C0004F04EC005F06EC006F06FC007F070C058
:100B2C0008F071C009F0FEEC0DF0040E4D26000E1D
:100B3C004E224F225022CFC001F0D0C002F0D1C0C3
:100B4C0003F0D2C004F0640E056E000E066E000EAB
:100B5C00076E000E086E93EC0BF001C0CFF002C0D4
:100B6C00D0F003C0D1F004C0D2F0CFC033F0D0C06D
:100B7C0034F0D1C035F0D2C036F0331E341E351EE1
:100B8C00361E332A000E34223522362233C045F06D
:100B9C0034C046F035C047F036C048F04DC004F0C4
:100BAC004EC005F045C006F046C007F047C008F03F
:100BBC0048C009F0FEEC0DF045C00FF046C010F037
:100BCC0047C011F048C012F03B0E136E000E146EAD
:100BDC00FCEC08F03B0E076E000E086E5AEC0DF0A4
:100BEC00000E4D6E000E4E6E000E4F6E000E506ECF
:100BFC004DC003F04EC004F04FC005F050C006F0DD
:100C0C0097EC09F003C06EF004C06FF005C070F0F3
:100C1C0006C071F0040E4D26000E4E224F225022BB
:100C2C004DC003F04EC004F04FC005F050C006F0AC
:100C3C0097EC09F003C0CFF004C0D0F005C0D1F0A0
:100C4C0006C0D2F0CFC033F0D0C034F0D1C035F0F4
:100C5C00D2C036F0331E341E351E361E332A000E1B
:100C6C0034223522362233C009F034C00AF035C0A4
:100C7C000BF036C00CF0E5EC0CF009C0B6F00AC075
:100C8C00B7F00BC0B8F0B6C013F0B7C014F0B8C0D2
:100C9C0015F0000E166E960E176E430E186E20ECA5
:100CAC000BF013C0B6F014C0B7F015C0B8F01200BA
:100CBC00000E0001E16F000EE26F000EE36F000EFC
:100CCC00E46F000EE06F000EDF6F000ED46F000EAD
:100CDC00D36F000E936E720ED36ECCEC0DF0000E33
:100CEC00026E030E016E5BEC0EF0250E506E800E44
:100CFC004F6E21EC0DF025EC0FF0860E076E080EF2
:100D0C00086E5AEC0DF025EC0FF0590E076E080E1C
:100D1C00086E5AEC0DF025EC0FF0000E0001E16F9F
:100D2C00000EE26F000EE36F000EE46FE1C003F003
:100D3C00E2C004F0E3C005F0E4C006F097EC09F063
:100D4C0003C06EF004C06FF005C070F006C071F007
:100D5C00040E0001E127000EE223E323E423E1C0AB
:100D6C0003F0E2C004F0E3C005F0E4C006F097EC39
:100D7C0009F003C0CFF004C0D0F005C0D1F006C01C
:100D8C00D2F0CFC054F0D0C055F0D1C056F0D2C084
:100D9C0057F0541E551E561E571E542A000E55222F
:100DAC005622572254C009F055C00AF056C00BF019
:100DBC0057C00CF0E5EC0CF009C0B6F00AC0B7F067
:100DCC000BC0B8F0B6C013F0B7C014F0B8C015F033
:100DDC00000E166E960E176E430E186E20EC0BF06E
:100DEC0013C0B6F014C0B7F015C0B8F07D0E076E86
:100DFC00080E086E5AEC0DF06EC00FF06FC010F0BC
:100E0C0070C011F071C012F0D50E136E000E146E7E
:100E1C00FCEC08F0D50E076E000E086E5AEC0DF0C7
:100E2C0025EC0FF08F0E076E080E086E5AEC0DF0C5
:100E3C00CFC00FF0D0C010F0D1C011F0D2C012F062
:100E4C00D50E136E000E146EFCEC08F0D50E076E6A
:100E5C00000E086E5AEC0DF025EC0FF000016E51EF
:100E6C006F1170117111D8B44EEC04F01BEC0FF033
:100E7C0081B21DD0000E0001B66F000EB76F000ED0
:100E8C00B86F000E6E6F000E6F6F000E706F000E5D
:100E9C00716F000EE06F000EDF6F000E6A6F000EB8
:100EAC006B6F000E6C6F000E6D6F4EEC04F0A6ECC9
:100EBC000CF001C06AF002C06BF003C06CF004C00F
:100ECC006DF0000E256E000E266E400E276EB6C01D
:100EDC0016F0B7C017F0B8C018F06EC054F06FC061
:100EEC0055F070C056F071C057F0541E551E561E6A
:100EFC00571E542A000E55225622572200016A51C1
:100F0C005424096E6B5155200A6E6C5156200B6E91
:100F1C006D5157200C6EE5EC0CF009C013F00AC0B3
:100F2C0014F00BC015F020EC0BF013C022F014C021
:100F3C0023F015C024F0A6EC0AF022C031F023C037
:100F4C0032F024C033F0EEEC0EF031C037F032C08A
:100F5C0038F033C039F0B6C016F0B7C017F0B8C0CF
:100F6C0018F06EC058F06FC059F070C05AF071C0D4
:100F7C005BF0581E591E5A1E5B1E582A000E592231
:100F8C005A225B2200016A515824096E6B51592078
:100F9C000A6E6C515A200B6E6D515B200C6EE5EC99
:100FAC000CF009C013F00AC014F00BC015F020ECC3
:100FBC000BF013C034F014C035F015C036F026EC2D
:100FCC0008F034C040F035C041F036C042F02CEC93
:100FDC000AF040C0DFF041C0E0F0DFC00FF0E0C02D
:100FEC0010F0000E10BEFF0E116E126ED50E136EA9
:100FFC00000E146EFCEC08F0D50E076E000E086E99
:10100C005AEC0DF0950E076E080E086E5AEC0DF0AA
:10101C0025EC0FF0020E2DEC0EF0D50E086E000E26
:10102C00096E93EC0DF0960E086E080E096E93EC9B
:10103C000DF0000E026E0A0E016E5BEC0EF018D76E
:10104C0036C03AF03B6A3C6A35343A3601E33B80B1
:10105C003A503F6E39C03AF03B6A3C6A38343A3603
:10106C0001E33B803A503E6E3F50D8B40BD03E501B
:10107C003F5CD8B00ED03F5000083E243A6E180E9C
:10108C003A6407D037C034F038C035F039C036F088
:10109C0012003E50D8B40BD03F503E5CD8B00ED0AE
:1010AC003E5000083F243A6E180E3A6407D034C004
:1010BC0034F035C035F036C036F01200060E3D6EF9
:1010CC0036BE3D8E39BE3D8C358EFF0E3416FF0E6E
:1010DC003516000E3616388EFF0E3716FF0E3816E4
:1010EC00000E39163E503F5CD8B01BD0D890373626
:1010FC00383639363E063F503E18D8B40DD03D0632
:10110C003DC03AF0070E3A16D8B406D0EFD7D890B7
:10111C003632353234323F2A3E503F18D8B41FD0C5
:10112C00F6D73F503E5CD8B01AD0D890343635360E
:10113C0036363F063F503E18D8B40DD03D063DC064
:10114C003AF0070E3A16D8B406D0EFD7D890393209
:10115C00383237323E2A3E503F18D8A4F7D73DAE2E
:10116C000CD0FF0E341AFF0E351AFF0E361A010E74
:10117C003426000E3522000E36223DAC0CD0FF0E6C
:10118C00371AFF0E381AFF0E391A010E3726000EC9
:10119C003822000E3922000E3D6E34503726355061
:1011AC0038223650392239AE0ED0FF0E371AFF0EC8
:1011BC00381AFF0E391A010E3726000E3822000E8F
:1011CC003922010E3D6E37C001F038C002F039C033
:1011DC0003F03FC004F03DC005F0F9EC0BF001C08A
:1011EC0034F002C035F003C036F012000FC019F015
:1011FC0010C01AF011C01BF012C01CF0000E1E6EB5
:10120C00000E1D6E000E186E000E176E1CD019C04D
:10121C0001F01AC002F01BC003F01CC004F00A0E4F
:10122C00056E000E066E000E076E000E086E93EC37
:10123C000BF001C019F002C01AF003C01BF004C07F
:10124C001CF01D4A1E2A19501A101B101C10D8A471
:10125C00DED712BE07D012501110101012E10F047D
:10126C00D8B00FD013C0D9FF14C0DAFF300EDF6E28
:10127C0020EE01F01350D9261450DA22000EDF6E46
:10128C0012001DC017F01EC018F03CD00FC001F0AA
:10129C0010C002F011C003F012C004F00A0E056E6B
:1012AC00000E066E000E076E000E086E50EC0CF071
:1012BC0001C015F002C016F01D06D8A01E061D5068
:1012CC001324D96E1E501420DA6E1550300FDF6EB9
:1012DC000FC001F010C002F011C003F012C004F0F6
:1012EC000A0E056E000E066E000E076E000E086EDE
:1012FC0093EC0BF001C00FF002C010F003C011F022
:10130C0004C012F00F50101011101210D8A4BED738
:10131C0017501324D96E18501420DA6E000EDF6E9D
:10132C00120003C001F004C002F02CEC0FF0076EA9
:10133C000750236E246A256A266A010E0324016E67
:10134C00000E0420026E2CEC0FF0076E0750276E77
:10135C00286A296A2A6A020E0324016E000E0420F0
:10136C00026E2CEC0FF0076E07502B6E2C6A2D6A58
:10137C002E6A030E0324016E000E0420026E2CEC68
:10138C000FF0076E07502F6E306A316A326A2FC029
:10139C0007F030C008F031C009F032C00AF007C0C5
:1013AC000AF0096A086A076A2BC00BF02CC00CF013
:1013BC002DC00DF02EC00EF00CC00EF00BC00DF0B9
:1013CC000C6A0B6AFF0E0B140F6EFF0E0C14106ED2
:1013DC00FF0E0D14116E000E0E14126E27C014F0B9
:1013EC0028C015F029C016F0136AFF0E1314176EDF
:1013FC00FF0E1414186E000E1514196E000E161430
:10140C001A6E235017241B6E000E18201C6E000E33
:10141C0019201D6E000E1A201E6E0F501B241F6EFD
:10142C0010501C20206E11501D20216E12501E20B9
:10143C00226E07501F24036E08502020046E0950A2
:10144C002120056E0A502220066E120042C044F084
:10145C00456A466A4134443601E3458044504E6E39
:10146C004E50D8A409D0000E406E000E416E000EF6
:10147C00426E000E436E1200170E446E40C045F0D3
:10148C0041C046F042C047F04428486E04D0D89082
:10149C00473246324532482EFAD74550496E418E76
:1014AC00FF0E4016FF0E4116000E421640504A6EBB
:1014BC0041504B6E42504C6E4D6A8E0E4E5E4EAE8F
:1014CC0016D04E50800A8F0FD8B009D0000E406E47
:1014DC00000E416E000E426E000E436E1200D8904C
:1014EC004D324C324B324A324E3EF9D715D0170E94
:1014FC004E640FD0000E406E000E416E000E426E18
:10150C00000E436E1200D8904A364B364C364D3690
:10151C004E064E50D8A4F7D74950D8B408D04D1E1B
:10152C004C1E4B1E4A6C000E4B224C224D224AC0C4
:10153C0040F04BC041F04CC042F04DC043F01200A3
:10154C0024C028F0296A2A6A2334283601E329802A
:10155C0028502B6E2B50D8A407D0000E226E000EF4
:10156C00236E000E246E120027C028F0296A2A6A06
:10157C002634283601E329802850306E3050D8A408
:10158C0007D0000E226E000E236E000E246E120089
:10159C0030507B0F2B2624C030F02750301A800E91
:1015AC003016238E268EFF0E2516FF0E2616000EE5
:1015BC002716000E2C6E000E2D6E000E2E6E070ED2
:1015CC002F6E22A006D025502C2626502D222750D7
:1015DC002E22D890243223322232D8902536263629
:1015EC0027362F2EEED7090E2F6E22A006D02550AF
:1015FC002C2626502D2227502E22D89024322332EE
:10160C002232D8902E322D322C322F2EEED72CC0E7
:10161C0001F02DC002F02EC003F02BC004F030C03E
:10162C0005F0F9EC0BF001C022F002C023F003C06E
:10163C0024F0120015C019F01A6A1B6A14341936FA
:10164C0001E31A801950206E2050D8A407D0000E48
:10165C00136E000E146E000E156E120018C019F0E9
:10166C001A6A1B6A1734193601E31A801950216E55
:10167C002150D8A407D0000E136E000E146E000E6D
:10168C00156E1200000E1D6E000E1E6E000E1F6EEB
:10169C002150890F205E15C021F01850211A800EA0
:1016AC002116148EFF0E1316FF0E1416000E1516AF
:1016BC00178EFF0E1616FF0E1716000E1816180EA4
:1016CC001C6ED8901D361E361F361650135C1750E4
:1016DC00145818501558D8A007D01650135E175030
:1016EC00145A1850155A1D80D890133614361536C6
:1016FC001C2EE7D71DC001F01EC002F01FC003F066
:10170C0020C004F021C005F0F9EC0BF001C013F07F
:10171C0002C014F003C015F01200000E0A6E08AEE1
:10172C000AD0081E071E061E056C000E0622072294
:10173C000822010E0A6E04AE0AD0041E031E021EFD
:10174C00016C000E022203220422010E0A1A000E62
:10175C000B6E000E0C6E000E0D6E000E0E6E055014
:10176C00061007100810D8B42AD0010E096E06D046
:10177C00D8900536063607360836092A08AEF8D74B
:10178C00D8900B360C360D360E360550015C0650D3
:10179C0002580750035808500458D8A009D00550D7
:1017AC00015E0650025A0750035A0850045A0B8027
:1017BC00D8900832073206320532092EE1D70A508A
:1017CC00D8B408D00E1E0D1E0C1E0B6C000E0C2275
:1017DC000D220E220BC001F00CC002F00DC003F064
:1017EC000EC004F012000450D8B405D00150021001
:1017FC000310D8A40CD0000E016E000E026E000E69
:10180C00036E1200042AD890033202320132000E09
:10181C000114066E000E0214076EFE0E0314086E01
:10182C00065007100810D8B40CD0ECD7042A010EBF
:10183C000126000E0222000E0322D890033202323F
:10184C000132000E0114066E000E0214076EFF0E1C
:10185C000314086E065007100810D8B406D0E6D74B
:10186C000406D89001360236033602BE03D0020EAF
:10187C000460F6D704A0029ED890043204500312E0
:10188C000550D8A4038E01C001F002C002F003C0C1
:10189C0003F01200000E0A6E04AE0AD0041E031EE2
:1018AC00021E016C000E022203220422010E0A6E9B
:1018BC0008AE08D0081E071E061E056C000E062278
:1018CC00072208220550061007100810D8B424D09F
:1018DC00010E096E06D0D890053606360736083646
:1018EC00092A08AEF8D70550015C0650025807507B
:1018FC00035808500458D8A008D00550015E065073
:10190C00025A0750035A0850045AD890083207322A
:10191C0006320532092EE7D70A50D8B408D0041E77
:10192C00031E021E016C000E02220322042201C0BF
:10193C0001F002C002F003C003F004C004F0120076
:10194C00929A898A8998928A000E066E000E076E0A
:10195C00000E086E000E096E80BAFED7000E056EE2
:10196C0014D08988D8900634066E0734076E083474
:10197C00086E0934096E899880AA06D0010E0626D5
:10198C00000E072208220922052A170E0564E9D742
:10199C008988000E0618066E000E0718076E800E5A
:1019AC000818086E000E0918096E899806C001F017
:1019BC0007C002F008C003F009C004F01200000ECA
:1019CC00126E8E0E116E0CAE11D00C1E0B1E0A1E5A
:1019DC00096C000E0A220B220C22010E126E06D08C
:1019EC00D8900C320B320A320932112A000E09142B
:1019FC000D6E000E0A140E6E000E0B140F6EFF0E01
:101A0C000C14106E0D500E100F101010D8A4E8D737
:101A1C0009C001F00AC002F00BC003F011C004F0C1
:101A2C0012C005F0F9EC0BF001C009F002C00AF08D
:101A3C0003C00BF01200949C948E4FC009F050C060
:101A4C000AF078EC0EF009C016F00AC017F00BC0C3
:101A5C0018F0240E136EF40E146E470E156E20EC57
:101A6C000BF013C034F014C035F015C036F0000E76
:101A7C00376E800E386EBF0E396E26EC08F034C00F
:101A8C0051F035C052F036C053F051C040F052C046
:101A9C0041F053C042F02CEC0AF04050AF6E200ED7
:101AAC00AC6E900EAB6E1200000E0C6E000E0B6E38
:101ABC001AD00B500724096E0C5008200A6E09C06E
:101ACC00F6FF0AC0F7FFF86A070EF76403D00800A8
:101ADC00F55005D0F6CFE9FFF7CFEAFFEF500FEC4A
:101AEC000FF00B4A0C2A0B500724096E0C500820DF
:101AFC000A6E09C0F6FF0AC0F7FFF86A070EF76412
:101B0C0003D00800F55005D0F6CFE9FFF7CFEAFF78
:101B1C00EF500009D8B41200CCD7000E0D6E000E99
:101B2C000C6E1AD00C5008240A6E0D5009200B6E46
:101B3C000AC0F6FF0BC0F7FFF86A070EF76403D074
:101B4C000800F55005D0F6CFE9FFF7CFEAFFEF50CC
:101B5C0094EC0EF00C4A0D2A0C5008240A6E0D5011
:101B6C0009200B6E0AC0F6FF0BC0F7FFF86A070ED0
:101B7C00F76403D00800F55005D0F6CFE9FFF7CF96
:101B8C00EAFFEF500009D8B41200CCD70F0EC16E8B
:101B9C00070EB46E000EB56E000E6D6E000EBD6EAF
:101BAC00000EBA6E938293809384000E0001966FA0
:101BBC00000E976F000E986F000E996F010EE56F77
:101BCC00000E026E640E016E5BEC0EF0250E506E74
:101BDC00800E4F6E21EC0DF09280928A9298B0ECB0
:101BEC000EF0650E086E080E096E93EC0DF01200E7
:101BFC0006C00AF007C00BF008C00CF009C00DF0CD
:101C0C0004C001F005C002F00AC003F0DCEC0EF0D9
:101C1C00010E0424016E000E0520026E0BC003F0B1
:101C2C00DCEC0EF0020E0424016E000E0520026E98
:101C3C000CC003F0DCEC0EF0030E0424016E000E5D
:101C4C000520026E0DC003F0DCEC0EF01200096EE4
:101C5C00000E086E09C007F0073A0F0E0716085061
:101C6C000F0B0710086E09380F0B896E8C908C8443
:101C7C0000F08C94000E026E030E016E5BEC0EF005
:101C8C0009C007F00F0E07160850F00B0710086E6E
:101C9C0009500F0B896E8C8400F08C94000E026E30
:101CAC00030E016E5BEC0EF01200000E046E000EC3
:101CBC00036E0FD0000E066E000E056E065007E187
:101CCC00A50E055CD8B003D0054A062AF7D7034AFF
:101CDC00042A0150035C02500458D8A0EBD700F042
:101CEC0000F01200000E0C6E0AAE06D0096C0A1E33
:101CFC00D8B00A2A010E0C6E09C001F00AC002F01D
:101D0C00036A8E0E046E0CC005F0F9EC0BF001C0EA
:101D1C0009F002C00AF003C00BF01200076E07387E
:101D2C000F0B896E8C808C8400F08C94000E026EEC
:101D3C00030E016E5BEC0EF007500F0B896E8C845A
:101D4C0000F08C94000E026E030E016E5BEC0EF034
:101D5C008C901200000E926E95909594000E026E6F
:101D6C00140E016E5BEC0EF0020E2DEC0EF0280E34
:101D7C002DEC0EF0010E2DEC0EF00C0E2DEC0EF0E9
:101D8C00060E2DEC0EF01200000E056E000E046E09
:101D9C0002D0044A052A0450015C0250800A036EEA
:101DAC000550800A0358D8A01200F3D701C0A9FF30
:101DBC0003C0A8FFA69EA69CA684F29E550EA76EF5
:101DCC00AA0EA76EA682F28EA1A8FED7A198120029
:101DDC00315032103310D8B406D0000E311A000E28
:101DEC00321A800E331A31C031F032C032F033C0A7
:101DFC0033F0120000EE60F0730EEE6AE806FDE1BF
:101E0C005F6A5E6A5D6A5C6A000EF86E00015EEFE6
:101E1C0006F0066EACA2FED706C0ADFF030E026E36
:101E2C00E80E016ECAEC0EF01200010E2DEC0EF055
:101E3C00000E026E030E016E5BEC0EF012000A0E29
:101E4C000FEC0FF00D0E0FEC0FF0120001C0A9FFFC
:0A1E5C00A694A69EA680A8501200CE
:020000040020DA
:08000000FFFFFFFFFFFFFFFF00
:020000040030CA
:0E000000240E1F1EFF8181FF0FC00FE00F4076
:00000001FF
